:100000000C9452000C946F000C946F000C946F00D1
:100010000C946F000C946F000C946F000C946F00A4
:100020000C946F000C946F000C946F000C946F0094
:100030000C946F000C946F000C946F000C946F0084
:100040000C9490000C946F000C946F000C946F0053
:100050000C946F000C946F000C946F000C946F0064
:100060000C946F000C946F00000000002500280025
:100070002B0000000000240027002A0004040404D0
:100080000404040402020202020203030303030342
:10009000010204081020408001020408102001021F
:1000A0000408102011241FBECFEFD8E0DEBFCDBF63
:1000B00011E0A0E0B1E0E0ECF7E002C005900D92A5
:1000C000A030B107D9F721E0A0E0B1E001C01D9256
:1000D000A930B207E1F70E94DA000C94DE030C9419
:1000E000000090E0FC01E057FF4F2491FC01E45830
:1000F000FF4F8491882399F090E0880F991FFC01AD
:10010000EE58FF4FA591B491FC01E859FF4F85913E
:1001100094918FB7F894EC91E22BEC938FBF0895F4
:100120001F920F920FB60F9211242F933F938F932C
:100130009F93AF93BF938091050190910601A09189
:100140000701B09108013091040123E0230F2D37FE
:1001500020F40196A11DB11D05C026E8230F0296CB
:10016000A11DB11D20930401809305019093060108
:10017000A0930701B09308018091000190910101C3
:10018000A0910201B09103010196A11DB11D8093C0
:10019000000190930101A0930201B0930301BF916C
:1001A000AF919F918F913F912F910F900FBE0F9024
:1001B0001F901895789484B5826084BD84B5816061
:1001C00084BD85B5826085BD85B5816085BD809122
:1001D0006E00816080936E0010928100809181009A
:1001E0008260809381008091810081608093810092
:1001F000809180008160809380008091B100846054
:100200008093B1008091B00081608093B0008091B4
:100210007A00846080937A0080917A008260809373
:100220007A0080917A00816080937A0080917A00D0
:10023000806880937A001092C10083E00E94710070
:100240008BE00E94710083EA8093B00082E080938B
:10025000B1008BEC8093B40082E38093B300CC2494
:10026000CA9483E0D82EE12CF12CC0E0D0E010E459
:1002700010937C0080917A00806480937A00809152
:100280007A0086FDFCCFA091780080917900B0E0E3
:10029000B82B23E630E00E94D703A70196010E9405
:1002A0007701DA01C9010196A11DB11DBC01990FA9
:1002B000880B990B0E94DE0220E030E048EC52E40B
:1002C0000E94340220E030E040E853E40E946A03D8
:1002D00020E030E040E85FE30E94C7010E94A602F0
:1002E0006093B400209721F20E940000C1CF052E38
:1002F00097FB1EF400940E948E0157FD07D00E94C8
:10030000960107FC03D04EF40C948E015095409555
:10031000309521953F4F4F4F5F4F089590958095B1
:10032000709561957F4F8F4F9F4F0895A1E21A2ED0
:10033000AA1BBB1BFD010DC0AA1FBB1FEE1FFF1F89
:10034000A217B307E407F50720F0A21BB30BE40BD9
:10035000F50B661F771F881F991F1A9469F7609520
:100360007095809590959B01AC01BD01CF010895DA
:10037000A29FB001B39FC001A39F700D811D1124E6
:10038000911DB29F700D811D1124911D089550582B
:10039000BB27AA270E94DF010C9430030E9422038E
:1003A00038F00E94290320F039F49F3F19F426F415
:1003B0000C941F030EF4E095E7FB0C941903E92F4E
:1003C0000E94410358F3BA17620773078407950721
:1003D00020F079F4A6F50C9463030EF4E0950B2E4F
:1003E000BA2FA02D0B01B90190010C01CA01A00187
:1003F0001124FF27591B99F0593F50F4503E68F1E2
:100400001A16F040A22F232F342F4427585FF3CF22
:10041000469537952795A795F0405395C9F77EF4F3
:100420001F16BA0B620B730B840BBAF09150A1F03C
:10043000FF0FBB1F661F771F881FC2F70EC0BA0FC2
:10044000621F731F841F48F4879577956795B7954A
:10045000F7959E3F08F0B0CF9395880F08F0992745
:10046000EE0F9795879508950E9448020C943003EB
:100470000E94290358F00E94220340F029F45F3FB4
:1004800029F00C94190351110C9464030C941F036C
:100490000E94410368F39923B1F3552391F3951B0F
:1004A000550BBB27AA2762177307840738F09F5F95
:1004B0005F4F220F331F441FAA1FA9F335D00E2E02
:1004C0003AF0E0E832D091505040E695001CCAF76F
:1004D0002BD0FE2F29D0660F771F881FBB1F261732
:1004E00037074807AB07B0E809F0BB0B802DBF0109
:1004F000FF2793585F4F3AF09E3F510578F00C94D8
:1005000019030C9464035F3FE4F3983ED4F386959B
:1005100077956795B795F7959F5FC9F7880F911DF8
:100520009695879597F90895E1E0660F771F881FE4
:10053000BB1F621773078407BA0720F0621B730B97
:10054000840BBA0BEE1F88F7E09508950E94AD0268
:100550006894B1110C94640308950E94490388F0D3
:100560009F5798F0B92F9927B751B0F0E1F0660F77
:10057000771F881F991F1AF0BA95C9F714C0B130B8
:1005800091F00E946303B1E008950C946303672F18
:10059000782F8827B85F39F0B93FCCF386957795E7
:1005A0006795B395D9F73EF49095809570956195D0
:1005B0007F4F8F4F9F4F0895E89409C097FB3EF4FB
:1005C00090958095709561957F4F8F4F9F4F9923A0
:1005D000A9F0F92F96E9BB279395F695879577951E
:1005E0006795B795F111F8CFFAF4BB0F11F460FFDE
:1005F0001BC06F5F7F4F8F4F9F4F16C0882311F036
:1006000096E911C0772321F09EE8872F762F05C049
:10061000662371F096E8862F70E060E02AF09A95E4
:10062000660F771F881FDAF7880F9695879597F9D9
:10063000089597F99F6780E870E060E008959FEF64
:1006400080EC089500240A94161617061806090669
:10065000089500240A941216130614060506089538
:10066000092E0394000C11F4882352F0BB0F40F4C0
:10067000BF2B11F460FF04C06F5F7F4F8F4F9F4F00
:10068000089557FD9058440F551F59F05F3F71F082
:100690004795880F97FB991F61F09F3F79F08795E9
:1006A0000895121613061406551FF2CF4695F1DF72
:1006B00008C0161617061806991FF1CF8695710502
:1006C000610508940895E894BB2766277727CB0136
:1006D00097F908950E947D030C9430030E94220331
:1006E00038F00E94290320F0952311F00C9419038F
:1006F0000C941F0311240C9464030E94410370F3B3
:10070000959FC1F3950F50E0551F629FF001729FB6
:10071000BB27F00DB11D639FAA27F00DB11DAA1FC5
:10072000649F6627B00DA11D661F829F2227B00D12
:10073000A11D621F739FB00DA11D621F839FA00D9D
:10074000611D221F749F3327A00D611D231F849FED
:10075000600D211D822F762F6A2F11249F57504044
:100760009AF0F1F088234AF0EE0FFF1FBB1F661FBF
:10077000771F881F91505040A9F79E3F510580F088
:100780000C9419030C9464035F3FE4F3983ED4F394
:10079000869577956795B795F795E7959F5FC1F72C
:1007A000FE2B880F911D9695879597F908950E94C5
:1007B000B801B7FF0895821B930B0895F894FFCFFB
:107E0000112484B714BE81FFF0D085E080938100F7
:107E100082E08093C00088E18093C10086E0809377
:107E2000C20080E18093C4008EE0C9D0259A86E02C
:107E300020E33CEF91E0309385002093840096BBD3
:107E4000B09BFECF1D9AA8958150A9F7CC24DD24C4
:107E500088248394B5E0AB2EA1E19A2EF3E0BF2EE7
:107E6000A2D0813461F49FD0082FAFD0023811F036
:107E7000013811F484E001C083E08DD089C08234E0
:107E800011F484E103C0853419F485E0A6D080C0E4
:107E9000853579F488D0E82EFF2485D0082F10E0AE
:107EA000102F00270E291F29000F111F8ED06801E7
:107EB0006FC0863521F484E090D080E0DECF843638
:107EC00009F040C070D06FD0082F6DD080E0C81688
:107ED00080E7D80618F4F601B7BEE895C0E0D1E017
:107EE00062D089930C17E1F7F0E0CF16F0E7DF06D8
:107EF00018F0F601B7BEE89568D007B600FCFDCFD4
:107F0000A601A0E0B1E02C9130E011968C91119780
:107F100090E0982F8827822B932B1296FA010C0160
:107F200087BEE89511244E5F5F4FF1E0A038BF0790
:107F300051F7F601A7BEE89507B600FCFDCF97BE46
:107F4000E89526C08437B1F42ED02DD0F82E2BD052
:107F50003CD0F601EF2C8F010F5F1F4F84911BD097
:107F6000EA94F801C1F70894C11CD11CFA94CF0C13
:107F7000D11C0EC0853739F428D08EE10CD085E9AC
:107F80000AD08FE07ACF813511F488E018D01DD067
:107F900080E101D065CF982F8091C00085FFFCCF94
:107FA0009093C60008958091C00087FFFCCF809118
:107FB000C00084FD01C0A8958091C6000895E0E648
:107FC000F0E098E1908380830895EDDF803219F02E
:107FD00088E0F5DFFFCF84E1DECF1F93182FE3DFCA
:107FE0001150E9F7F2DF1F91089580E0E8DFEE27F6
:047FF000FF270994CA
:027FFE00040479
:0400000300007E007B
:00000001FF
